{
  "_format": "hh-sol-artifact-1",
  "contractName": "SLAContract",
  "sourceName": "contracts/LevelAgreement.sol",
  "abi": [
    {
      "anonymous": false,
      "inputs": [
        {
          "indexed": true,
          "internalType": "bytes32",
          "name": "slaId",
          "type": "bytes32"
        }
      ],
      "name": "SLAClaimed",
      "type": "event"
    },
    {
      "anonymous": false,
      "inputs": [
        {
          "indexed": true,
          "internalType": "bytes32",
          "name": "slaId",
          "type": "bytes32"
        },
        {
          "indexed": false,
          "internalType": "string",
          "name": "terms",
          "type": "string"
        },
        {
          "indexed": false,
          "internalType": "uint256",
          "name": "penaltyAmount",
          "type": "uint256"
        },
        {
          "indexed": true,
          "internalType": "address",
          "name": "client",
          "type": "address"
        }
      ],
      "name": "SLACreated",
      "type": "event"
    },
    {
      "inputs": [
        {
          "internalType": "bytes32",
          "name": "slaId",
          "type": "bytes32"
        }
      ],
      "name": "claimPenalty",
      "outputs": [],
      "stateMutability": "nonpayable",
      "type": "function"
    },
    {
      "inputs": [
        {
          "internalType": "bytes32",
          "name": "slaId",
          "type": "bytes32"
        },
        {
          "internalType": "string",
          "name": "terms",
          "type": "string"
        },
        {
          "internalType": "uint256",
          "name": "penaltyAmount",
          "type": "uint256"
        }
      ],
      "name": "createSLA",
      "outputs": [],
      "stateMutability": "nonpayable",
      "type": "function"
    },
    {
      "inputs": [
        {
          "internalType": "bytes32",
          "name": "slaId",
          "type": "bytes32"
        }
      ],
      "name": "getSLA",
      "outputs": [
        {
          "internalType": "string",
          "name": "",
          "type": "string"
        },
        {
          "internalType": "uint256",
          "name": "",
          "type": "uint256"
        },
        {
          "internalType": "bool",
          "name": "",
          "type": "bool"
        },
        {
          "internalType": "address",
          "name": "",
          "type": "address"
        }
      ],
      "stateMutability": "view",
      "type": "function"
    },
    {
      "inputs": [
        {
          "internalType": "bytes32",
          "name": "",
          "type": "bytes32"
        }
      ],
      "name": "slas",
      "outputs": [
        {
          "internalType": "string",
          "name": "terms",
          "type": "string"
        },
        {
          "internalType": "uint256",
          "name": "penaltyAmount",
          "type": "uint256"
        },
        {
          "internalType": "bool",
          "name": "fulfilled",
          "type": "bool"
        },
        {
          "internalType": "address",
          "name": "client",
          "type": "address"
        }
      ],
      "stateMutability": "view",
      "type": "function"
    }
  ],
  "bytecode": "0x6080604052348015600f57600080fd5b50610dcc8061001f6000396000f3fe608060405234801561001057600080fd5b506004361061004c5760003560e01c80633d333a58146100515780635913b8d514610084578063cbd0a3f1146100b7578063e5ac77bd146100d3575b600080fd5b61006b60048036038101906100669190610662565b6100ef565b60405161007b9493929190610794565b60405180910390f35b61009e60048036038101906100999190610662565b6101d4565b6040516100ae9493929190610794565b60405180910390f35b6100d160048036038101906100cc9190610662565b61032c565b005b6100ed60048036038101906100e89190610941565b6104ec565b005b6000602052806000526040600020600091509050806000018054610112906109df565b80601f016020809104026020016040519081016040528092919081815260200182805461013e906109df565b801561018b5780601f106101605761010080835404028352916020019161018b565b820191906000526020600020905b81548152906001019060200180831161016e57829003601f168201915b5050505050908060010154908060020160009054906101000a900460ff16908060020160019054906101000a900473ffffffffffffffffffffffffffffffffffffffff16905084565b6060600080600080600080878152602001908152602001600020604051806080016040529081600082018054610209906109df565b80601f0160208091040260200160405190810160405280929190818152602001828054610235906109df565b80156102825780601f1061025757610100808354040283529160200191610282565b820191906000526020600020905b81548152906001019060200180831161026557829003601f168201915b50505050508152602001600182015481526020016002820160009054906101000a900460ff161515151581526020016002820160019054906101000a900473ffffffffffffffffffffffffffffffffffffffff1673ffffffffffffffffffffffffffffffffffffffff1673ffffffffffffffffffffffffffffffffffffffff1681525050905080600001518160200151826040015183606001519450945094509450509193509193565b60008082815260200190815260200160002060020160009054906101000a900460ff161561038f576040517f08c379a000000000000000000000000000000000000000000000000000000000815260040161038690610a5c565b60405180910390fd5b60008082815260200190815260200160002060020160019054906101000a900473ffffffffffffffffffffffffffffffffffffffff1673ffffffffffffffffffffffffffffffffffffffff163373ffffffffffffffffffffffffffffffffffffffff1614610432576040517f08c379a000000000000000000000000000000000000000000000000000000000815260040161042990610ac8565b60405180910390fd5b600160008083815260200190815260200160002060020160006101000a81548160ff0219169083151502179055503373ffffffffffffffffffffffffffffffffffffffff166108fc600080848152602001908152602001600020600101549081150290604051600060405180830381858888f193505050501580156104bb573d6000803e3d6000fd5b50807fa4c16cbc0f8396172a8fa406f04051e450740d5fb056364b7afea5ec3694deec60405160405180910390a250565b60405180608001604052808381526020018281526020016000151581526020013373ffffffffffffffffffffffffffffffffffffffff16815250600080858152602001908152602001600020600082015181600001908161054d9190610c94565b506020820151816001015560408201518160020160006101000a81548160ff02191690831515021790555060608201518160020160016101000a81548173ffffffffffffffffffffffffffffffffffffffff021916908373ffffffffffffffffffffffffffffffffffffffff1602179055509050503373ffffffffffffffffffffffffffffffffffffffff16837f50238044d56b7e7f0e7f513add981854a15dc955e321d2bf846278b4f639650d848460405161060b929190610d66565b60405180910390a3505050565b6000604051905090565b600080fd5b600080fd5b6000819050919050565b61063f8161062c565b811461064a57600080fd5b50565b60008135905061065c81610636565b92915050565b60006020828403121561067857610677610622565b5b60006106868482850161064d565b91505092915050565b600081519050919050565b600082825260208201905092915050565b60005b838110156106c95780820151818401526020810190506106ae565b60008484015250505050565b6000601f19601f8301169050919050565b60006106f18261068f565b6106fb818561069a565b935061070b8185602086016106ab565b610714816106d5565b840191505092915050565b6000819050919050565b6107328161071f565b82525050565b60008115159050919050565b61074d81610738565b82525050565b600073ffffffffffffffffffffffffffffffffffffffff82169050919050565b600061077e82610753565b9050919050565b61078e81610773565b82525050565b600060808201905081810360008301526107ae81876106e6565b90506107bd6020830186610729565b6107ca6040830185610744565b6107d76060830184610785565b95945050505050565b600080fd5b600080fd5b7f4e487b7100000000000000000000000000000000000000000000000000000000600052604160045260246000fd5b610822826106d5565b810181811067ffffffffffffffff82111715610841576108406107ea565b5b80604052505050565b6000610854610618565b90506108608282610819565b919050565b600067ffffffffffffffff8211156108805761087f6107ea565b5b610889826106d5565b9050602081019050919050565b82818337600083830152505050565b60006108b86108b384610865565b61084a565b9050828152602081018484840111156108d4576108d36107e5565b5b6108df848285610896565b509392505050565b600082601f8301126108fc576108fb6107e0565b5b813561090c8482602086016108a5565b91505092915050565b61091e8161071f565b811461092957600080fd5b50565b60008135905061093b81610915565b92915050565b60008060006060848603121561095a57610959610622565b5b60006109688682870161064d565b935050602084013567ffffffffffffffff81111561098957610988610627565b5b610995868287016108e7565b92505060406109a68682870161092c565b9150509250925092565b7f4e487b7100000000000000000000000000000000000000000000000000000000600052602260045260246000fd5b600060028204905060018216806109f757607f821691505b602082108103610a0a57610a096109b0565b5b50919050565b7f534c4120616c72656164792066756c66696c6c65640000000000000000000000600082015250565b6000610a4660158361069a565b9150610a5182610a10565b602082019050919050565b60006020820190508181036000830152610a7581610a39565b9050919050565b7f4f6e6c7920636c69656e742063616e20636c61696d0000000000000000000000600082015250565b6000610ab260158361069a565b9150610abd82610a7c565b602082019050919050565b60006020820190508181036000830152610ae181610aa5565b9050919050565b60008190508160005260206000209050919050565b60006020601f8301049050919050565b600082821b905092915050565b600060088302610b4a7fffffffffffffffffffffffffffffffffffffffffffffffffffffffffffffffff82610b0d565b610b548683610b0d565b95508019841693508086168417925050509392505050565b6000819050919050565b6000610b91610b8c610b878461071f565b610b6c565b61071f565b9050919050565b6000819050919050565b610bab83610b76565b610bbf610bb782610b98565b848454610b1a565b825550505050565b600090565b610bd4610bc7565b610bdf818484610ba2565b505050565b5b81811015610c0357610bf8600082610bcc565b600181019050610be5565b5050565b601f821115610c4857610c1981610ae8565b610c2284610afd565b81016020851015610c31578190505b610c45610c3d85610afd565b830182610be4565b50505b505050565b600082821c905092915050565b6000610c6b60001984600802610c4d565b1980831691505092915050565b6000610c848383610c5a565b9150826002028217905092915050565b610c9d8261068f565b67ffffffffffffffff811115610cb657610cb56107ea565b5b610cc082546109df565b610ccb828285610c07565b600060209050601f831160018114610cfe5760008415610cec578287015190505b610cf68582610c78565b865550610d5e565b601f198416610d0c86610ae8565b60005b82811015610d3457848901518255600182019150602085019450602081019050610d0f565b86831015610d515784890151610d4d601f891682610c5a565b8355505b6001600288020188555050505b505050505050565b60006040820190508181036000830152610d8081856106e6565b9050610d8f6020830184610729565b939250505056fea2646970667358221220043184de0c34ff98885db66fd16470be5e4c4b891847b3c879dae1829b2c0c4364736f6c634300081a0033",
  "linkReferences": {},
  "deployedLinkReferences": {}
}